:1000000071C0000086C0000084C0000082C00000F3
:1000100080C000007EC000007CC000007AC00000EC
:1000200078C0000076C0000074C0000072C00000FC
:1000300070C000006EC000006CC000006AC000000C
:1000400068C0000066C0000064C0000062C000001C
:1000500060C000005EC000005CC000005AC000002C
:1000600058C0000056C0000054C0000052C000003C
:1000700050C000004EC000004CC000004AC000004C
:1000800048C0000046C0000044C0000042C000005C
:1000900040C000003EC000003CC000003AC000006C
:1000A00038C0000036C0000034C0000032C000007C
:1000B00030C000002EC000002CC000002AC000008C
:1000C00028C0000026C0000024C0000022C000009C
:1000D00020C000001EC000001CC000001AC00000AC
:1000E00018C0000011241FBECFEFD1E2DEBFCDBF8C
:1000F00000E00CBF12E0A0E0B2E0E2EEF2E000E0CF
:100100000BBF02C007900D92A232B107D9F7AAD057
:10011000E6C076CF97B19C6097B997B1906F97B9C9
:10012000662311F0429A01C04298439A98B19F7099
:1001300098B983FD479A82FD469A81FD459A80FDD4
:10014000449A8DE08A95F1F7000043980895CF9383
:10015000DF93C82FD62F8595859585958595DADF10
:100160006D2F8C2FD7DFDF91CF9108958FEC97E023
:100170000197F1F700C0000060E082E0CBDF8FEC78
:1001800097E00197F1F700C0000060E088E2DFDF50
:100190008FEC97E00197F1F700C0000060E081E08C
:1001A000D6DF8FEC97E00197F1F700C0000060E028
:1001B00086E0CDDF8FEC97E00197F1F700C00000FB
:1001C00060E08CE0C4CF0895EFECF7E03197F1F7F1
:1001D00000C0000060E08C60BACF0895EFECF7E05B
:1001E0003197F1F700C0000060E08860B0CF08955B
:1001F0008FEC97E00197F1F700C0000060E081E02C
:10020000A6CF0895EFECF7E03197F1F700C00000BA
:10021000F0E48F9F600D1124862F60E0806897CFF7
:100220000895CF93DF93FC012081222369F0EC0134
:100230008FEC97E00197F1F700C0000061E0899131
:1002400086DF88818111F4CFDF91CF9108958823D3
:1002500011F0889A01C08898662311F0899A089550
:1002600089980895CF93DF93CDB7DEB761970FB626
:10027000F894DEBF0FBECDBF2FEF81EE94E021508A
:1002800080409040E1F700C0000070DFB1DF84E003
:10029000A5DF80E099DF80E1E0E0F2E0DE01119689
:1002A00001900D928A95E1F760E080E0ABDFCE012E
:1002B0000196B7DF81E1E0E1F2E0DE011196019005
:1002C0000D928A95E1F760E081E09CDFCE01019616
:1002D000A8DF83E080BB60E081E0B9DFFCCFF89469
:0202E000FFCF4E
:1002E2002020202074203D20313020432020200077
:1002F2002050726F6A42794B7572736F76696B2008
:020302000000F9
:00000001FF
