S0180000476363426F61726450726F6A656374322E737265630E
S113000071C0000079C0000077C0000075C0000016
S113001073C0000071C000006FC000006DC000001C
S11300206BC0000069C0000067C0000065C000002C
S113003063C0000061C000005FC000005DC000003C
S11300405BC0000059C0000057C0000055C000004C
S113005053C0000051C000004FC000004DC000005C
S11300604BC0000049C0000047C0000045C000006C
S113007043C0000041C000003FC000003DC000007C
S11300803BC0000039C0000037C0000035C000008C
S113009033C0000031C000002FC000002DC000009C
S11300A02BC0000029C0000027C0000025C00000AC
S11300B023C0000021C000001FC000001DC00000BC
S11300C01BC0000019C0000017C0000015C00000CC
S11300D013C0000011C000000FC000000DC00000DC
S11300E00BC0000011241FBECFEFD1E2DEBFCDBF95
S11300F000E00CBFBDD0F9C083CF86E880937A00BE
S113010010927C00089580937C008AE090E00DD0EA
S1130110EAE7F0E0808180648083808184FFFDCF02
S113012080917800909179000895009719F000006B
S11301300197E9F7089597B19C6097B997B1906FCB
S113014097B9662311F0429A01C04298439A98B134
S11301509F7098B983FD479A82FD469A81FD459A1E
S113016080FD449A8DE08A95F1F700004398089544
S1130170CF93DF93C82FD62F859585958595859543
S1130180DADF6D2F8C2FD7DFDF91CF9108958FECBD
S113019097E00197F1F700C0000060E082E0CBDF58
S11301A08FEC97E00197F1F700C0000060E088E26F
S11301B0DFDF8FEC97E00197F1F700C0000060E00B
S11301C081E0D6DF8FEC97E00197F1F700C00000E3
S11301D060E086E0CDDF8FEC97E00197F1F700C097
S11301E0000060E08CE0C4CF0895EFECF7E03197B5
S11301F0F1F700C0000060E08C60BACF0895EFEC26
S1130200F7E03197F1F700C0000060E08860B0CFFC
S113021008958FEC97E00197F1F700C0000060E0CB
S113022081E0A6CF0895EFECF7E03197F1F700C035
S11302300000F0E48F9F600D1124862F60E0806839
S113024097CF0895CF93DF93FC012081222369F097
S1130250EC018FEC97E00197F1F700C0000061E03A
S1130260899186DF88818111F4CFDF91CF91089540
S1130270CF93DF93CDB7DEB761970FB6F894DEBFA7
S11302800FBECDBF2FEF81EE94E02150804090400F
S1130290E1F700C000007BDFBCDF84E0B0DF80E07A
S11302A0A4DF2BDF83E080BB81E081B980E02BDF1A
S11302B0BC01CE01019612D060E080E0B4DFCE0133
S11302C00196C0DF60E070E0CE01019607D060E0E7
S11302D081E0A9DFCE010196B5DFE8CFFB01DC01A7
S11102E001900D920020E1F70895F894FFCFED
S9030000FC
